{"abi":[{"type":"function","name":"play","inputs":[{"name":"guess","type":"uint256","internalType":"uint256"}],"outputs":[{"name":"","type":"bool","internalType":"bool"}],"stateMutability":"nonpayable"},{"type":"event","name":"GameResult","inputs":[{"name":"player","type":"address","indexed":false,"internalType":"address"},{"name":"guess","type":"uint256","indexed":false,"internalType":"uint256"},{"name":"random","type":"uint256","indexed":false,"internalType":"uint256"},{"name":"win","type":"bool","indexed":false,"internalType":"bool"}],"anonymous":false}],"bytecode":{"object":"0x6080604052348015600e575f5ffd5b506104628061001c5f395ff3fe608060405234801561000f575f5ffd5b5060043610610029575f3560e01c80636898f82b1461002d575b5f5ffd5b61004760048036038101906100429190610178565b61005d565b60405161005491906101bd565b60405180910390f35b5f5f821015801561006f575060648211155b6100ae576040517f08c379a00000000000000000000000000000000000000000000000000000000081526004016100a590610230565b60405180910390fd5b5f6001606442336040516020016100c69291906102e3565b604051602081830303815290604052805190602001205f1c6100e8919061033b565b6100f29190610398565b90505f81841490507f8e82347896581433cca91c098c421523af006d1424c4bdf715615d8811007ad83385848460405161012f94939291906103e9565b60405180910390a18092505050919050565b5f5ffd5b5f819050919050565b61015781610145565b8114610161575f5ffd5b50565b5f813590506101728161014e565b92915050565b5f6020828403121561018d5761018c610141565b5b5f61019a84828501610164565b91505092915050565b5f8115159050919050565b6101b7816101a3565b82525050565b5f6020820190506101d05f8301846101ae565b92915050565b5f82825260208201905092915050565b7f4775657373206265747765656e20302d313030000000000000000000000000005f82015250565b5f61021a6013836101d6565b9150610225826101e6565b602082019050919050565b5f6020820190508181035f8301526102478161020e565b9050919050565b5f819050919050565b61026861026382610145565b61024e565b82525050565b5f73ffffffffffffffffffffffffffffffffffffffff82169050919050565b5f6102978261026e565b9050919050565b5f8160601b9050919050565b5f6102b48261029e565b9050919050565b5f6102c5826102aa565b9050919050565b6102dd6102d88261028d565b6102bb565b82525050565b5f6102ee8285610257565b6020820191506102fe82846102cc565b6014820191508190509392505050565b7f4e487b71000000000000000000000000000000000000000000000000000000005f52601260045260245ffd5b5f61034582610145565b915061035083610145565b9250826103605761035f61030e565b5b828206905092915050565b7f4e487b71000000000000000000000000000000000000000000000000000000005f52601160045260245ffd5b5f6103a282610145565b91506103ad83610145565b92508282019050808211156103c5576103c461036b565b5b92915050565b6103d48161028d565b82525050565b6103e381610145565b82525050565b5f6080820190506103fc5f8301876103cb565b61040960208301866103da565b61041660408301856103da565b61042360608301846101ae565b9594505050505056fea26469706673582212208fb1ca77862d280808834af3c0a54c2d8ae1323474d29c558c04f7ac6bb1881864736f6c634300081c0033","linkReferences":{}},"methodIdentifiers":{"play(uint256)":"6898f82b"},"id":16}